:020000040000FA
:100000000C9462000C948A000C948A000C948A0070
:100010000C948A000C948A000C948A000C948A0038
:100020000C948A000C948A000C948A000C948A0028
:100030000C948A000C948A000C948A000C948A0018
:100040000C94640B0C948A000C94D40B0C94AE0B9F
:100050000C948A000C948A000C948A000C948A00F8
:100060000C948A000C948A000000000023002600F3
:10007000290000000000240027002A0000000000E2
:10008000250028002B0004040404040404040202D4
:100090000202020203030303030301020408102007
:1000A0004080010204081020010204081020000012
:1000B0000008000201000003040700000000000027
:1000C0000000901011241FBECFEFD8E0DEBFCDBFDF
:1000D00014E0A0E0B1E0E6EEF3E202C005900D927C
:1000E000A431B107D9F726E0A4E1B4E001C01D9224
:1000F000A836B207E1F710E0C2E6D0E004C02197CD
:10010000FE010E94BD10C136D107C9F70E94060C3E
:100110000C94F1110C940000FC0181E08083828337
:100120001482168210868185846081870895FC017F
:1001300081E0808382831482168217821086118662
:1001400012861386148615861786118A128A138AD8
:10015000148A158A168A178A108E128E148E168E9D
:10016000178E10A211A212A213A214A215A217A2F6
:1001700010A611A612A613A614A615A616A60895D3
:10018000833081F028F4813099F08230A9F008950D
:100190008730A9F08830C9F08430B1F480918000B4
:1001A0008F7D03C0809180008F77809380000895B9
:1001B00084B58F7784BD089584B58F7DFBCF809102
:1001C000B0008F778093B00008958091B0008F7D4C
:1001D000F9CF1F93CF93DF93282F30E0F901E25539
:1001E000FF4F8491F901E656FF4FD491F901EA5788
:1001F000FF4FC491CC23A9F0162F81110E94C0009B
:10020000EC2FF0E0EE0FFF1FE458FF4FA591B491E3
:100210008FB7F894EC91111108C0D095DE23DC93D0
:100220008FBFDF91CF911F910895DE2BF8CFCF9331
:10023000DF9390E0FC01E656FF4F24918A579F4FD1
:10024000FC0184918823D1F090E0880F991FFC0174
:10025000EE58FF4FA591B491FC01E458FF4FC591B2
:10026000D49161110EC09FB7F8948C91E22FE09564
:100270008E238C932881E223E8839FBFDF91CF9167
:1002800008958FB7F894EC91E22BEC938FBFF6CFE3
:100290008230910538F0880F991F880F991F0597B4
:1002A0000197F1F70895AF92BF92CF92DF92EF924C
:1002B000FF920F931F93CF93DF936C017B018B0110
:1002C000040F151FEB015E01AE18BF08C017D10760
:1002D00059F06991D601ED91FC910190F081E02DEA
:1002E000C6010995892B79F7C501DF91CF911F913F
:1002F0000F91FF90EF90DF90CF90BF90AF90089557
:10030000FC01538D448D252F30E0842F90E0821B1B
:10031000930B541710F0CF96089501970895FC01A0
:10032000918D828D981761F0A28DAE0FBF2FB11DF8
:100330005D968C91928D9F5F9F73928F90E0089550
:100340008FEF9FEF0895FC01918D828D981731F00A
:10035000828DE80FF11D858D90E008958FEF9FEF5E
:100360000895FC01918D228D892F90E0805C9F4F34
:10037000821B91098F73992708958EE494E00E945F
:10038000B10121E0892B09F420E0822F089580E05B
:1003900090E0892B29F00E94BD0181110C9400008E
:1003A0000895FC01A48DA80FB92FB11DA35ABF4F0A
:1003B0002C91848D90E001968F739927848FA68964
:1003C000B7892C93A089B1898C91837080648C93B8
:1003D000938D848D981306C00288F389E02D808167
:1003E0008F7D80830895EF92FF920F931F93CF9399
:1003F000DF93EC0181E0888F9B8D8C8D98131AC060
:10040000E889F989808185FF15C09FB7F894EE8946
:10041000FF896083E889F9898081837080648083A3
:100420009FBF81E090E0DF91CF911F910F91FF90EE
:10043000EF900895F62E0B8D10E00F5F1F4F0F7396
:100440001127E02E8C8D8E110CC00FB607FCFACF51
:10045000E889F989808185FFF5CFCE010E94D1011D
:10046000F1CFEB8DEC0FFD2FF11DE35AFF4FF08222
:100470009FB7F8940B8FEA89FB8980818062CFCF88
:10048000CF93DF93EC01888D8823B9F0AA89BB89CB
:10049000E889F9898C9185FD03C0808186FD0DC0B6
:1004A0000FB607FCF7CF8C9185FFF2CF808185FFD7
:1004B000EDCFCE010E94D101E9CFDF91CF91089518
:1004C000880F991F880F991FFC01EA5FFC4F8081FC
:1004D0009181228133812A30310531F030F422308C
:1004E000310511F090E080E008952F303105E1F3FF
:1004F00027333105B9F7FC01228121FF02C00396A1
:100500000895808191810895880F991F880F991F00
:10051000FC01EA5FFC4F828193818A30910571F082
:1005200028F4029741F481E090E008958F3091051E
:10053000D1F3C797C1F390E080E0089588E090E0A0
:100540000895FC01838182709081911104C0811112
:1005500017C012820895811102C081E082838781D1
:1005600081FD09C08481811104C081E090859111D1
:1005700001C080E08683818581FD02C084818087FF
:100580000895FC0184819581A681B78140815181C4
:1005900062817381811526E3920725E6A20724EC88
:1005A000B2073CF014161506160617068CF4B7FFB2
:1005B0000FC0415051096109710940835183628321
:1005C00073839653A546B44C84839583A683B783DF
:1005D00084819581A681B781408151816281738137
:1005E00081302AEC92072AE9A2072BE3B2073CF4F8
:1005F00077FF14C0181619061A061B067CF44F5F05
:100600005F4F6F4F7F4F40835183628373839A5C48
:10061000AA49BB4384839583A683B7830895209119
:100620001A04209530E0F901EA5FFD4F9081909522
:100630002A5F3E4FD9018C914091180450911904C2
:1006400042505109EAE1F4E031969F012A513440C9
:100650002417350770F420819227292F30E0D90123
:10066000AA5FBD4F9C9198272A5F3E4FD9018C917C
:10067000EBCF089523E030E0309319042093180461
:10068000EAE1F4E090914104908380588183628391
:1006900008950F931F93582F577001E010E020E04A
:1006A00030E004C0000F111F221F331F5A95D2F7EC
:1006B00023E0969587952A95E1F79927E0914504DF
:1006C000F0914604662321F0E0914B04F0914C0434
:1006D000E80FF91F8081442329F0082B00831F9124
:1006E0000F91089500950823F9CFCF92DF92EF92F2
:1006F000FF920F931F93CF93DF93CDB7DEB7888917
:100700009989AA89BB894C895D896E897F89088D01
:10071000198D2A8D3B8DCC8CDD8CEE8CFF8C801757
:100720009107A207B30759F44C195D096E097F09B7
:1007300014161506160617065CF081E00AC0801B29
:10074000910BA20BB30B181619061A061B06ACF771
:1007500080E0DF91CF911F910F91FF90EF90DF909C
:10076000CF9008954F925F926F927F928F929F9257
:10077000AF92BF92CF92DF92EF92FF920F931F93AF
:10078000CF93DF93CDB7DEB7A0970FB6F894DEBF57
:100790000FBECDBFFC0123812270308131111AC000
:1007A000211101C01282A0960FB6F894DEBF0FBED1
:1007B000CDBFDF91CF911F910F91FF90EF90DF9010
:1007C000CF90BF90AF909F908F907F906F905F90F1
:1007D0004F900895211102C021E02283FC0126A13F
:1007E00021FD09C028E0E7E4F6E0DC015E96019017
:1007F0000D922A95E1F78C01FC01F28C8481F110B5
:1008000018C0948D992309F4ECC0811114C0838D14
:1008100081FD02C081E0828FF80187A581FD1BC0A8
:1008200088E07E96D801979601900D928A95E1F71F
:1008300012C0882329F1F801818D81FD08C0118A39
:10084000128A138A148A158A168A178A108EF8015A
:10085000838D81FF128EF801808981FD0AC0848119
:100860008111BDC081E0928D913009F080E0F801E6
:100870008787F801858D81FD96CF8481848F93CF02
:10088000F1E0FF12E8CFF80183A594A5A5A5B6A5D0
:1008900082849384A484B58447A150A561A572A5E0
:1008A0004680578060847184440D551D661D771DF8
:1008B00049835A836B837C83880D991DAA1DBB1DB8
:1008C0008D839E83AF83B887CE0101960E94C102BB
:1008D00088E0FE013196DE01519601900D928A95D5
:1008E000E1F788E0FE017196DE01599601900D92C4
:1008F0008A95E1F700D000D000D000D0ADB7BEB7E8
:10090000119688E0F8017E9601900D928A95E1F7A4
:1009100000D000D000D000D0ADB7BEB7119688E0AF
:10092000FE01799601900D928A95E1F71F9282E07F
:10093000E82EEF921F921F92FF920E9475030FB64E
:10094000F894DEBF0FBECDBFF801918D882359F01A
:10095000838D81FFE28E88E0F801369691FD7BCF92
:10096000D801519661CF91FD76CF82A193A1A4A128
:10097000B5A1C3A4D4A4E5A4F6A4468D578D60A167
:1009800071A187A090A4A1A4B2A4481959096A0929
:100990007B0949875A876B877C878C199D09AE092B
:1009A000BF098D879E87AF87B88BCE0109960E94BD
:1009B000C10288E0FE013996DE01119601900D9288
:1009C0008A95E1F788E0FE013196DE0119960190E3
:1009D0000D928A95E1F788E0FE013996C1CF81E05A
:1009E00046CF882309F437CF26CFCF93DF93CDB7F7
:1009F000DEB78A85811108C081E09B85911101C015
:100A000080E0DF91CF91089581E0FBCF2F923F925C
:100A10004F925F926F927F928F929F92AF92BF920E
:100A2000CF92DF92EF92FF920F931F93CF93DF93BA
:100A3000CDB7DEB7A8970FB6F894DEBF0FBECDBF17
:100A400010E000E0F801EE0FFF1FE95FF94F0190A1
:100A5000F081E02D309749F041E08081811101C0A3
:100A600040E060E0C8010E9449030F5F1F4F003261
:100A7000110541F727EC35E03FA32EA3E091420496
:100A8000F09143049F01205C3F4F47EC55E0DA01B1
:100A90008D919D91AD01009729F0DC018D919C9184
:100AA0009183808332962E173F0789F7F7EFEF2E59
:100AB000F4E0FF2E10E000E0D701ED91FD917D0103
:100AC000309749F041E08081811101C040E061E050
:100AD000C8010E9449030F5F1F4F0830110561F7DD
:100AE0004BEE54E0E0914804F09149049F01245FEB
:100AF0003F4FDA018D919D91AD01009729F0DC0106
:100B00008D919C91918380833296E217F30789F748
:100B1000109219041092180480913F04909140049F
:100B2000DC01ED91FC910084F185E02D0995892B84
:100B300009F44BC080913F0490914004DC01ED9199
:100B4000FC910084F185E02D0995209118043091E5
:100B50001904A0913F04B0914004ED91FC911197CC
:100B60000084F185E02D2817390768F4CD01099537
:100B7000909319048093180480913C0490913D0453
:100B80000E944801D7CFCD01099581979CF48091AF
:100B90003F0490914004DC01ED91FC910084F185CB
:100BA000E02D0995EAE1AE2EE4E0BE2E7501069730
:100BB0000CF064C080913F0490914004DC01ED9101
:100BC000FC910680F781E02D0995409145045091F4
:100BD000460430E020E0F901EE0FFF1FE95FF94F16
:100BE000A081B181109799F0F90183E0F695E7951E
:100BF0008A95E1F7E40FF51F808190E0622F67701E
:100C000002C0959587956A95E2F781708C932F5F66
:100C10003F4F20323105F9F6E0914204F091430450
:100C2000CF01805C9F4FAEA1BFA14D915D91BFA34D
:100C3000AEA34115510529F020813181DA012D93B0
:100C40003C9332968E179F0771F7A8960FB6F894CB
:100C5000DEBF0FBECDBFDF91CF911F910F91FF90EF
:100C6000EF90DF90CF90BF90AF909F908F907F904C
:100C70006F905F904F903F902F90089500911804CF
:100C800010911904C0903F04D0904004C7018A51CC
:100C900094408017910760F4D601ED91FC91028495
:100CA000F385E02DC6010995F70181937F01E6CF19
:100CB0007801F2E0EF1AF1080E940F03F701E65EF7
:100CC000FB4F2081F801E75EFB4F3081232732275D
:100CD00023272817390741F0D601ED91FC910680B2
:100CE000F781E02DC60170CF90911A0480914104E4
:100CF0009813F2CFF0921904E092180490901B041C
:100D000000911C0410911D04102701271027E0906A
:100D10001E04F0901F04FE24EF24FE2440911E04C4
:100D20008091200490E0BFE09B1609F4A3C2B9159E
:100D300060F1E3E09E1609F47EC0E91568F0F1E089
:100D40009F1609F413C122E0921609F49AC161E0DA
:100D500070E0892D90E016C035E0931609F46AC260
:100D6000931608F418C286E09812F1CF80914404DB
:100D70008150990B8017910708F043C062E070E042
:100D800086E090E00E943A0346C0A2E49A1609F475
:100D90000BC4A91598F0B0E19B1609F49BC0E1E4DF
:100DA0009E12D5CF84E090E09093190480931804AC
:100DB00010921C0482E380931D042DC0F4E49F165E
:100DC00009F45DC39F1608F4F6C225E49212BFCF62
:100DD0008EE780931C0481E2E2EFF3E0DE011196DE
:100DE00001900D928A95E1F7FE013196ADE1B4E0F4
:100DF00081919D012A513440882309F460C48D9368
:100E0000F7CF000F111FE0914204F0914304E00F6F
:100E1000F11FF182E08280911804909119040296EA
:100E2000819708F484C280911B0464E070E090E034
:100E30000E943A037CC2C701019763E070E08D37DE
:100E40009105C8F420914404C8018E0D9F1D62E0F5
:100E500070E02817190678F0C701880F991F0396CC
:100E60009093190480931804EAE1F4E0813291052B
:100E700028F064E070E083E090E084CF31969F0139
:100E80002A5134402817390710F41082F7CF93E025
:100E900090931B04835080931C04000F111FE0915A
:100EA0004204F0914304E00FF11F31E0E31AF1082E
:100EB00082E0A80EB11C9FEFE916F90609F4ABCF4A
:100EC000808191813296D50111969C93119712964B
:100ED0008C93EBCF9701215031092B37310530F43A
:100EE0009701220F331F8217930729F063E070E008
:100EF00080E190E047CF20914404C8018E0D9F1DF2
:100F00002817190618F462E070E0F2CF86E090E04E
:100F1000909319048093180480E180931B0410932C
:100F20001C0400931D0410921E04E0921F04000F85
:100F3000111FE0914204F0914304E00FF11FB1E072
:100F4000EB1AF10822E0A20EB11C3FEFE316F30604
:100F500009F4EDC1D50115968C91159716969C91C3
:100F600089279827892781939193E9CFC701019712
:100F700063E070E0803D974060F520914704C80130
:100F80008E0D9F1D62E070E02817190610F1C70151
:100F900023E0969587952A95E1F79C012D5F3F4FB9
:100FA0003093190420931804970127703327232BBB
:100FB00029F00496909319048093180480911804E2
:100FC00090911904EAE1F4E08132910528F064E09F
:100FD00070E081E090E0D6CE31969F012A513440F6
:100FE0002817390710F41082F7CF91E090931B0473
:100FF000835080931C04409045045090460430E098
:1010000020E0712C41E050E060E070E04A015B01BB
:10101000072C04C0880C991CAA1CBB1C0A94D2F78C
:10102000F901A3E0F695E795AA95E1F7E35EFB4F9A
:101030006080D80183E0B695A7958A95E1F7AF71F6
:10104000BB27A40DB51D8C9190E0A02FA77002C006
:1010500095958795AA95E2F780FF0FC08628808234
:101060007394E8E07E1201C0712C0F5F1F4F2F5F59
:101070003F4FE216F30651F6CECE80946820608290
:10108000EFCFC701019763E070E0803D974060F5C6
:1010900020914D04C8018E0D9F1D62E070E028175D
:1010A000190610F1C70123E0969587952A95E1F777
:1010B0009C012D5F3F4F3093190420931804970132
:1010C00027703327232B29F00496909319048093DB
:1010D00018048091180490911904EAE1F4E0813237
:1010E000910528F064E070E082E090E04BCE31960C
:1010F0009F012A5134402817390710F41082F7CF86
:1011000092E090931B04835080931C0440904B0406
:1011100050904C0430E020E0712C41E050E060E061
:1011200070E04A015B01072C04C0880C991CAA1CC2
:10113000BB1C0A94D2F7F901A3E0F695E795AA95AE
:10114000E1F7E35EFB4F6080D80183E0B695A79599
:101150008A95E1F7A40DB52DB11D8C9190E0A02FDB
:10116000A77002C095958795AA95E2F780FF0FC0FA
:1011700086288082739488E0781201C0712C0F5FFA
:101180001F4F2F5F3F4FE216F30659F644CE80946F
:1011900068206082EFCFC701019763E070E08D3770
:1011A0009105C8F420914A04C8018E0D9F1D62E08C
:1011B00070E02817190678F0C701880F991F039669
:1011C0009093190480931804EAE1F4E081329105C8
:1011D00028F064E070E084E090E0D4CD31969F0187
:1011E0002A5134402817390710F41082F7CF94E0C1
:1011F00090931B04835080931C04000F111FE091F7
:101200004804F0914904E00FF11F91E0E91AF10858
:10121000A2E0AA0EB11CBFEFEB16FB0609F4FBCD52
:10122000808191813296D50111969C9311971296E7
:101230008C93EBCFE114BFEFFB0629F063E070E085
:10124000E114F10449F4809147048150990B80170F
:10125000910728F462E070E085E090E093CD41E0F2
:10126000E114EFEFFE0609F040E060E0C8010E94E3
:101270004903D1CDA70163E0569547956A95E1F7FB
:10128000242FB70167707727672B11F021E0240F17
:10129000A70141505109403B574018F4281719063F
:1012A00029F063E070E08FE090E06CCD209147047E
:1012B000C8018E0D9F1D2817190618F462E070E012
:1012C000F2CF86E090E090931904809318048FE0A9
:1012D00080931B0410931C0400931D04F0921E04C1
:1012E000E0921F04B12CA12C912CF50153E0F6954E
:1012F000E7955A95E1F7E65EFB4F478150E0092CF0
:1013000002C0559547950A94E2F7417060E0C80124
:101310008A0D9B1D0E944903939428E0921201C0FC
:10132000912C3FEFA31AB30AEA14FB04F1F60091E3
:101330001804109119047801F2E0EF0EF11CF092FC
:101340001904E09218040E940F03F801E65EFB4FB7
:101350009083818380913E0487FD09C061E00E94F3
:10136000E90080913A0490913B040E944801D60123
:10137000ED91FC910280F381E02DA7016AE174E018
:10138000C601099580913F0490914004DC01ED91E4
:10139000FC910680F781E02D099580913A049091A7
:1013A0003B040E94480180913E0487FD0ECC60E022
:1013B0000E94E9000ACC0233110508F055C082E30F
:1013C000E816F10408F050C0E016F10608F44CC02D
:1013D000480145E2442E44E0542E312C212CC40116
:1013E0000E9484023C015101A80EB91EC5010B9652
:1013F0008197C0F5C4010E946002A301BC01C20133
:101400000E94E811460C571CC40101961501840185
:10141000E816F90628F5C5010796909319048093FC
:10142000180483E480931B048EE780931C041092BD
:101430001D0400931E048091570690915806209138
:10144000590630915A0630931F042093200490933C
:10145000210480932204B0922304A0922404DBCCC4
:101460004C01BDCF5101D7CF83E090E09093190498
:101470008093180483E480931B0481E82BC0C80187
:10148000880F991F0E94C3107C010097D1F09BA385
:101490008AA3FC01912C812C92E0A90EB11C0815A5
:1014A0001905D9F0D50112968C91129713969C913B
:1014B00089279827892781939193BFEF8B1A9B0ADD
:1014C000EBCF83E090E090931904809318049092FE
:1014D0001B0482E880931C049ECC512C412C18A63E
:1014E000312C212C0BE010E084149504C9F1EAA101
:1014F000FBA161907190FBA3EAA3F2E36F16710464
:1015000080F083E090E0909319048093180484E4C1
:1015100080931B0481E880931C04C7010E945F1123
:101520007ACCC3010E9484025C019C01200F311F10
:101530003DA32CA32132310598F4C3010E9460021F
:10154000A501BC01C801865E9B4F0E94E8112A0CD0
:101550003B1C3FEF431A530A68A60CA11DA1C4CF40
:10156000109319040093180484E480931B048EE7FD
:1015700080931C0410921D0488A580931E04809102
:101580005706909158062091590630915A0630938B
:101590001F0420932004909321048093220430920E
:1015A000230420922404B9CF0233110548F480911A
:1015B0001F04909120049827892798274A9740F084
:1015C00083E090E0909319048093180482E453CF51
:1015D000000F111F000F111FF801EA5FFC4F8081FF
:1015E000918122813381442309F446C02A30310598
:1015F000B1F170F422303105F9F083E090E090937E
:1016000019048093180482E480931B048EE762CF50
:101610002F303105E1F02733310579F7DC01ED9109
:10162000FC91119720912104208312962C911297FE
:10163000226012962C93E1CF20912104DC012C939F
:1016400011962C911197226011962C93D6CF209150
:101650002104FC012083218122602183CECF28E058
:10166000E1E2F4E0DC0101900D922A95E1F7FC0142
:10167000208522602087C1CF2A303105E1F050F467
:101680002230310509F0B9CFDC0111962C91119768
:101690002D7FDACF2F30310551F02733310509F096
:1016A000ACCFDC0112962C9112972D7FC2CFFC019A
:1016B00021812D7FD2CFFC0120852D7FDBCF309380
:1016C000190420931804A7CB1F920F920FB60F9204
:1016D00011242F933F938F939F93AF93BF93809148
:1016E000600690916106A0916206B0916306309108
:1016F0005F0623E0230F2D3758F50196A11DB11D7C
:1017000020935F068093600690936106A093620623
:10171000B093630680915B0690915C06A0915D0694
:10172000B0915E060196A11DB11D80935B0690935A
:101730005C06A0935D06B0935E06BF91AF919F914A
:101740008F913F912F910F900FBE0F901F90189582
:1017500026E8230F0296A11DB11DD2CF1F920F9232
:101760000FB60F9211242F933F934F935F936F9374
:101770007F938F939F93AF93BF93EF93FF938EE4E9
:1017800094E00E94D101FF91EF91BF91AF919F91A1
:101790008F917F916F915F914F913F912F910F901A
:1017A0000FBE0F901F9018951F920F920FB60F92B9
:1017B00011242F938F939F93EF93FF93E0915E04F7
:1017C000F0915F048081E0916404F091650482FDF2
:1017D0001BC09081809167048F5F8F732091680494
:1017E000821741F0E0916704F0E0E25BFB4F958FD8
:1017F00080936704FF91EF919F918F912F910F90AC
:101800000FBE0F901F9018958081F4CF789484B507
:10181000826084BD84B5816084BD85B5826085BDEC
:1018200085B5816085BD80916E00816080936E007A
:10183000109281008091810082608093810080916C
:10184000810081608093810080918000816080931D
:1018500080008091B10084608093B1008091B000DD
:1018600081608093B00080917A00846080937A00D8
:1018700080917A00826080937A0080917A00816002
:1018800080937A0080917A00806880937A00109229
:10189000C10087E095E00E94970087E395E00E94F1
:1018A000970087E695E00E94970007E1A02E04E0EC
:1018B000B02EB0929805A09297051092170486E179
:1018C000C82E84E0D82ED0929C05C0929B05109221
:1018D000160495E1E92E94E0F92EF092A005E0922D
:1018E0009F051092150404E114E01093A4050093E1
:1018F000A30581E08093140487EA95E00E948C00A0
:1019000081EB95E00E948C008BEB95E00E948C00AF
:101910001092C505B0920806A0920706D0920A065A
:10192000C0920906F0920C06E0920B0610930E0688
:1019300000930D062BEEE22E23E0F22E06EE13E0CE
:1019400060E0D8018D918D010E941701E016F1062B
:10195000B9F716EEE12E13E0F12E00EE13E060E091
:10196000F80181918F010E941701E016F106B9F785
:1019700061E087E00E94170161E088E00E941701A2
:1019800061E08CE00E94170161E08DE00E94170188
:1019900061E089E00E94170161E08AE00E9417017E
:1019A00061E08BE00E9417018EE494E09093400484
:1019B00080933F048FEF80933E04E0915E04F091AA
:1019C0005F0482E08083E0915A04F0915B0410820E
:1019D000E0915C04F0915D0480E1808310926604E4
:1019E000E0916204F091630416E01083E0916004DA
:1019F000F0916104808180618083E0916004F091C6
:101A00006104808188608083E0916004F0916104CA
:101A1000808180688083E0916004F091610480811E
:101A20008F7D80838EEE92E090933D0480933C0402
:101A300081E49AE090933B0480933A0481E08093A0
:101A4000410400E2009344040093470410934A04C5
:101A500088E080934D0484E090E00E94C31090934E
:101A6000460480934504009709F02EC210E000E080
:101A7000C801880F991F9C01295F394F7901D9014D
:101A80008D919C91892B49F481E090E00E94C310D4
:101A9000F70191838083DC011C920F5F1F4F00329E
:101AA000110531F74091420450914304E7ECF5E011
:101AB00090E080E021913191232B49F4DF011297CE
:101AC0009C01220F331F240F351F2D933C93019649
:101AD0008032910579F7B7E0EB2EB5E0FB2E07EFEA
:101AE00014E0F801819191918F01892B51F481E0EB
:101AF00090E00E94C310F801329791838083DC014B
:101B00001C92E016F10669F780914804909149040F
:101B1000EBEEF4E021913191232B21F4DF011297B8
:101B20008D939C930296B4E0E73FFB0799F784E11D
:101B300090E0A0E0B0E080934F0690935006A09311
:101B40005106B09352068FB7F894409160065091B9
:101B5000610660916206709163068FBF80914F06A7
:101B600090915006A0915106B0915206840F951F96
:101B7000A61FB71F8093530690935406A093550653
:101B8000B0935606F4E04F2E512C612C712CA6E038
:101B90008A2E912CA12CB12CE6EEEE2EE3E0FE2E47
:101BA00007EF14E0F801219031908F0121143104E6
:101BB00019F1D7012C9130E0F901E255FF4F8491E2
:101BC000F901E656FF4FC490F901EA57FF4FD49050
:101BD000DD2079F081110E94C000ED2DF0E0EE0FC4
:101BE000FF1FE859FF4FA591B491EC91CE2281E0FF
:101BF00009F480E0F1018083FFEFEF1AFF0A25E08E
:101C00000130120709F0CECF40EE53E0EBEEF4E0E6
:101C100081919191892B21F1DA018C918E3008F01C
:101C20008E508770806480937C0080917A008064FD
:101C300080937A0080917A0086FDFCCF80917800B5
:101C4000909179009F0122503109D9012D913C9149
:101C500066E0880F991F6A95E1F7D9018D939C93EF
:101C60004F5F5F4FB4E0E73FFB0791F60E94060528
:101C70008091570690915806A0915906B0915A0646
:101C80000196A11DB11D8093570690935806A0930D
:101C90005906B0935A068091AC0581FD08C0809129
:101CA0009D0581FF42C180919E058093AB0587EA27
:101CB00095E00E94A1028091C60581FD1FC0809120
:101CC000A50581FF38C18091A6051F928F93809151
:101CD000AD058F931F92E2E0EF931F921F92F1E008
:101CE000FF930E94F5048093C5052DB73EB7285F8A
:101CF0003F4F0FB6F8943EBF0FBE2DBF80910C052D
:101D000081FD04C08091C50580930B058091150568
:101D100081FD14C08AE090E0A0E0B0E080930D0562
:101D200090930E05A0930F05B09310051092110526
:101D300010921205109213051092140587E095E099
:101D40000E94B2038091990581FD07C0E09197053B
:101D5000F09198058091160580838091B60581FDEC
:101D600008C08091A10581FFECC08091A2058093FD
:101D7000B50581EB95E00E94A10280913C0581FDB3
:101D800004C08091B70580933B058091450581FD96
:101D900010C040923D0550923E0560923F05709202
:101DA0004005109241051092420510924305109291
:101DB000440587E395E00E94B20380919D0581FD73
:101DC00007C0E0919B05F0919C05809146058083BA
:101DD0008091C00581FD08C08091990581FFB7C041
:101DE00080919A058093BF058BEB95E00E94A1023C
:101DF00080916C0581FD04C08091C10580936B05C5
:101E00008091750581FD10C080926D0590926E05E0
:101E1000A0926F05B0927005109271051092720534
:101E2000109273051092740587E695E00E94B20344
:101E30008091A10581FD07C0E0919F05F091A0056B
:101E40008091760580838091A50581FD05C0E09194
:101E5000A305F091A405108207E016E09EEEE92E9E
:101E600093E0F92ED801ED91FD918D01309729F085
:101E70006081F70180810E94E900FFEFEF1AFF0AFD
:101E80002FE036E02017310769F78BEEE82E83E06C
:101E9000F82E07EC15E0D801ED91FD918D013097FA
:101EA00009F488C0D701DC90B181CB2FE0E0DE2FB0
:101EB00061E08D2D0E941701209709F04EC060E06F
:101EC0008D2D0E94E90076C024E0DC011D922A9548
:101ED000E9F780E490E00E94C3109093430480935C
:101EE0004204009709F4C2CDFC0111920A95E9F76A
:101EF00081E090E00E94C31090934C0480934B04C7
:101F0000009709F4B3CDDC011C928CE090E00E94B4
:101F1000C3109093490480934804009709F4A6CD18
:101F2000FC0111921A95E9F7A1CDE0919B05F09182
:101F30009C058081BACEE091A305F091A405808133
:101F4000C4CEE0919F05F091A005808110CFE09173
:101F50009705F0919805808145CFCF3FD10511F4C9
:101F600061E0AECFED2DF0E0E255FF4FE491E330BC
:101F700009F47CC048F4E130C9F0E23009F471C0E2
:101F8000C038D1056CF79BCFE73009F479C0E83051
:101F900009F47EC0E430A1F78091800080628093D4
:101FA0008000D0938B00C0938A0004C084B5806801
:101FB00084BDC7BD9FEFE91AF90AADECB5E0A017E3
:101FC000B10709F068CF80914B0690914C06A09123
:101FD0004D06B0914E06AC01BD01535D6E4C7E4F77
:101FE0004115EAEC5E07EAE96E07EBE37E070CF0C9
:101FF00057C040934B0650934C0660934D06709328
:102000004E060E9406058FB7F894409160065091E5
:10201000610660916206709163068FBF80915306DE
:1020200090915406A0915506B0915606481759074D
:102030006A077B0708F053C02FB7F89440916006F9
:102040005091610660916206709163062FBF841BF8
:10205000950BA60BB70B84369105A105B10598F237
:10206000D0CF84B5806284BDC8BDA4CF80918000EC
:10207000806880938000D0938900C09388009ACFB5
:102080008091B00080688093B000C093B30092CF7D
:102090008091B00080628093B000C093B4008ACF7A
:1020A0009D59A946BA4380934B0690934C06A09342
:1020B0004D06B0934E068091470690914806A09138
:1020C0004906B0914A060196A11DB11D80934706AD
:1020D00090934806A0934906B0934A0692CF409148
:1020E0004F06509150066091510670915206840F30
:1020F000951FA61FB71F8093530690935406A09375
:102100005506B093560620E030E0232B09F444CD69
:102110000E94BD01882309F43FCD0E9400003CCD00
:10212000EEE4F4E01382128288EE93E0A0E0B0E0E7
:1021300084839583A683B78382ED93E09183808324
:1021400085EC90E09587848784EC90E0978786877C
:1021500080EC90E0918B808B81EC90E0938B828B74
:1021600082EC90E0958B848B86EC90E0978B868B4D
:10217000118E128E138E148E0895EE0FFF1F059090
:10218000F491E02D09940F931F93CF93DF93823046
:10219000910510F482E090E0E0916606F091670608
:1021A00030E020E0B0E0A0E0309799F4211531054F
:1021B00009F44AC0281B390B24303105D8F58A812F
:1021C0009B816115710589F1FB0193838283FE0177
:1021D00011C0408151810281138148175907E0F0F5
:1021E0004817590799F4109761F012960C931297BB
:1021F00013961C933296CF01DF91CF911F910F91CF
:1022000008950093660610936706F4CF21153105F3
:1022100051F04217530738F0A901DB019A01BD01C3
:10222000DF01F801C1CFEF01F9CF909367068093EA
:102230006606CDCFFE01E20FF31F819391932250EA
:10224000310939832883D7CF209164063091650600
:10225000232B41F420910201309103013093650654
:102260002093640620910001309101012115310570
:1022700041F42DB73EB74091040150910501241B54
:10228000350BE0916406F0916506E217F307A0F4C0
:102290002E1B3F0B2817390778F0AC014E5F5F4FBC
:1022A0002417350748F04E0F5F1F50936506409383
:1022B0006406819391939FCFF0E0E0E09CCFCF93B1
:1022C000DF930097E9F0FC01329713821282A0910C
:1022D0006606B0916706ED0130E020E01097A1F4AA
:1022E00020813181820F931F209164063091650611
:1022F0002817390709F061C0F0936506E09364067A
:10230000DF91CF910895EA01CE17DF07E8F54A8102
:102310005B819E0141155105B1F7E901FB83EA8319
:1023200049915991C40FD51FEC17FD0761F48081C5
:1023300091810296840F951FE90199838883828198
:1023400093819B838A83F0E0E0E012968D919C91CB
:1023500013970097B9F52D913C911197CD010296F5
:10236000820F931F20916406309165062817390764
:1023700039F6309751F51092670610926606B093C1
:102380006506A0936406BCCFD383C283408151818C
:10239000840F951FC817D90761F44E5F5F4F88817E
:1023A0009981480F591F518340838A819B81938370
:1023B00082832115310509F0B0CFF0936706E093D1
:1023C00066069ECFFD01DC01C0CF13821282D7CFFB
:1023D000FB01DC0102C001900D9241505040D8F742
:1023E0000895F894FFCF00006806800000C0C10186
:1023F000C30302C2C60607C705C5C404CC0C0DCD75
:102400000FCFCE0E0ACACB0BC90908C8D81819D9E4
:102410001BDBDA1A1EDEDF1FDD1D1CDC14D4D51514
:10242000D71716D6D21213D311D1D010F03031F104
:1024300033F3F23236F6F737F53534F43CFCFD3D34
:10244000FF3F3EFEFA3A3BFB39F9F83828E8E92924
:10245000EB2B2AEAEE2E2FEF2DEDEC2CE42425E5D4
:1024600027E7E62622E2E323E12120E0A06061A144
:1024700063A3A26266A6A767A56564A46CACAD6DF4
:10248000AF6F6EAEAA6A6BAB69A9A86878B8B97964
:10249000BB7B7ABABE7E7FBF7DBDBC7CB47475B594
:1024A00077B7B67672B2B373B17170B05090915184
:1024B0009353529296565797559594549C5C5D9DB4
:1024C0005F9F9E5E5A9A9B5B9959589888484989A4
:1024D0004B8B8A4A4E8E8F4F8D4D4C8C4484854554
:1024E00087474686824243834181804000C18140C4
:1024F00001C0804101C0804100C1814001C08041D4
:1025000000C1814000C1814001C0804101C08041C3
:1025100000C1814000C1814001C0804100C18140B3
:1025200001C0804101C0804100C1814001C08041A3
:1025300000C1814000C1814001C0804100C1814093
:1025400001C0804101C0804100C1814000C1814083
:1025500001C0804101C0804100C1814001C0804173
:1025600000C1814000C1814001C0804101C0804163
:1025700000C1814000C1814001C0804100C1814053
:1025800001C0804101C0804100C1814000C1814043
:1025900001C0804101C0804100C1814001C0804133
:1025A00000C1814000C1814001C0804100C1814023
:1025B00001C0804101C0804100C1814001C0804113
:1025C00000C1814000C1814001C0804101C0804103
:1025D00000C1814000C1814001C0804100C18140F3
:1025E00001C0804101C0804100C1814007050F004A
:1025F00009050F000B050F000D050A0016050F0059
:1026000018050A002105020023050F0025050A0010
:102610002E050A0037050F0039050F003B050F0096
:102620003D050A0046050F0048050A005105020055
:1026300053050F0055050A005E050A0067050F00E7
:1026400069050F006B050F006D050A0076050F0088
:1026500078050A008105020083050F0085050A0040
:102660008E050A00970537009B0537009F05370048
:10267000A3053700A7050F00A9050F00AB050F0044
:10268000AD050F00AF050F00B1050F00B3050F003A
:10269000B5050F00B7050F00B9050F00BB050F000A
:1026A000BD050F00BF050F00C1050F00C3050F00DA
:1026B000C5050F0000000000F30153018001400236
:1026C000B1018F01A3010E0F1011121302030405B3
:1026D00006090A0B07080C0D6237323933356638A4
:1026E00033623864393034326432343531356264BF
:0A26F00062303436333961630000B4
:107E0000112484B714BE81FFF0D085E080938100F7
:107E100082E08093C00088E18093C10086E0809377
:107E2000C20080E18093C4008EE0C9D0259A86E02C
:107E300020E33CEF91E0309385002093840096BBD3
:107E4000B09BFECF1D9AA8958150A9F7CC24DD24C4
:107E500088248394B5E0AB2EA1E19A2EF3E0BF2EE7
:107E6000A2D0813461F49FD0082FAFD0023811F036
:107E7000013811F484E001C083E08DD089C08234E0
:107E800011F484E103C0853419F485E0A6D080C0E4
:107E9000853579F488D0E82EFF2485D0082F10E0AE
:107EA000102F00270E291F29000F111F8ED06801E7
:107EB0006FC0863521F484E090D080E0DECF843638
:107EC00009F040C070D06FD0082F6DD080E0C81688
:107ED00080E7D80618F4F601B7BEE895C0E0D1E017
:107EE00062D089930C17E1F7F0E0CF16F0E7DF06D8
:107EF00018F0F601B7BEE89568D007B600FCFDCFD4
:107F0000A601A0E0B1E02C9130E011968C91119780
:107F100090E0982F8827822B932B1296FA010C0160
:107F200087BEE89511244E5F5F4FF1E0A038BF0790
:107F300051F7F601A7BEE89507B600FCFDCF97BE46
:107F4000E89526C08437B1F42ED02DD0F82E2BD052
:107F50003CD0F601EF2C8F010F5F1F4F84911BD097
:107F6000EA94F801C1F70894C11CD11CFA94CF0C13
:107F7000D11C0EC0853739F428D08EE10CD085E9AC
:107F80000AD08FE07ACF813511F488E018D01DD067
:107F900080E101D065CF982F8091C00085FFFCCF94
:107FA0009093C60008958091C00087FFFCCF809118
:107FB000C00084FD01C0A8958091C6000895E0E648
:107FC000F0E098E1908380830895EDDF803219F02E
:107FD00088E0F5DFFFCF84E1DECF1F93182FE3DFCA
:107FE0001150E9F7F2DF1F91089580E0E8DFEE27F6
:047FF000FF270994CA
:027FFE00040479
:00000001FF
