:020000040000FA
:100000000C9462000C948A000C948A000C948A0070
:100010000C948A000C948A000C948A000C948A0038
:100020000C948A000C948A000C948A000C948A0028
:100030000C948A000C948A000C948A000C948A0018
:100040000C94E5090C948A000C94550A0C942F0A20
:100050000C948A000C948A000C948A000C948A00F8
:100060000C948A000C948A000000000023002600F3
:10007000290000000000240027002A0000000000E2
:10008000250028002B0004040404040404040202D4
:100090000202020203030303030301020408102007
:1000A0004080010204081020010204081020000012
:1000B0000008000201000003040700000000000027
:1000C0000000F51011241FBECFEFD8E0DEBFCDBF7A
:1000D00013E0A0E0B1E0E0EBF4E202C005900D9285
:1000E000A03AB107D9F725E0A0EAB3E001C01D921C
:1000F000A539B207E1F710E0C2E6D0E004C02197CD
:10010000FE010E942211C136D107C9F70E94870A59
:100110000C9456120C940000FC0181E080838283D1
:100120001482168217821086118612861386148610
:1001300015861786118A128A138A148A158A168AD6
:10014000178A108E128E148E168E178E10A211A280
:1001500012A213A214A215A217A210A611A612A6EB
:1001600013A614A615A616A60895833081F028F4C8
:10017000813099F08230A9F008958730A9F0883055
:10018000C9F08430B1F4809180008F7D03C08091EC
:1001900080008F7780938000089584B58F7784BD29
:1001A000089584B58F7DFBCF8091B0008F778093C9
:1001B000B00008958091B0008F7DF9CF1F93CF9349
:1001C000DF93282F30E0F901E255FF4F8491F901C8
:1001D000E656FF4FD491F901EA57FF4FC491CC2363
:1001E000A9F0162F81110E94B500EC2FF0E0EE0F60
:1001F000FF1FE458FF4FA591B4918FB7F894EC918D
:10020000111108C0D095DE23DC938FBFDF91CF9111
:100210001F910895DE2BF8CFCF93DF9390E0FC0180
:10022000E656FF4F24918A579F4FFC018491882303
:10023000D1F090E0880F991FFC01EE58FF4FA59177
:10024000B491FC01E458FF4FC591D49161110EC0E7
:100250009FB7F8948C91E22FE0958E238C932881A0
:10026000E223E8839FBFDF91CF9108958FB7F89481
:10027000EC91E22BEC938FBFF6CF8230910538F0F2
:10028000880F991F880F991F05970197F1F7089517
:10029000AF92BF92CF92DF92EF92FF920F931F9394
:1002A000CF93DF936C017B018B01040F151FEB01D2
:1002B0005E01AE18BF08C017D10759F06991D60189
:1002C000ED91FC910190F081E02DC6010995892BFB
:1002D00079F7C501DF91CF911F910F91FF90EF90BA
:1002E000DF90CF90BF90AF900895FC01538D448D67
:1002F000252F30E0842F90E0821B930B541710F0D1
:10030000CF96089501970895FC01918D828D9817DD
:1003100061F0A28DAE0FBF2FB11D5D968C91928DB5
:100320009F5F9F73928F90E008958FEF9FEF0895E6
:10033000FC01918D828D981731F0828DE80FF11DAF
:10034000858D90E008958FEF9FEF0895FC01918DCA
:10035000228D892F90E0805C9F4F821B91098F73C3
:100360009927089587ED93E00E94A60121E0892B4B
:1003700009F420E0822F089580E090E0892B29F095
:100380000E94B20181110C9400000895FC01A48D1B
:10039000A80FB92FB11DA35ABF4F2C91848D90E0A7
:1003A00001968F739927848FA689B7892C93A0898A
:1003B000B1898C91837080648C93938D848D981314
:1003C00006C00288F389E02D80818F7D80830895A7
:1003D000EF92FF920F931F93CF93DF93EC0181E095
:1003E000888F9B8D8C8D98131AC0E889F98980813C
:1003F00085FF15C09FB7F894EE89FF896083E8896F
:10040000F98980818370806480839FBF81E090E060
:10041000DF91CF911F910F91FF90EF900895F62EED
:100420000B8D10E00F5F1F4F0F731127E02E8C8D87
:100430008E110CC00FB607FCFACFE889F9898081CC
:1004400085FFF5CFCE010E94C601F1CFEB8DEC0FF9
:10045000FD2FF11DE35AFF4FF0829FB7F8940B8FE9
:10046000EA89FB8980818062CFCFCF93DF93EC0153
:10047000888D8823B9F0AA89BB89E889F9898C918C
:1004800085FD03C0808186FD0DC00FB607FCF7CF48
:100490008C9185FFF2CF808185FFEDCFCE010E9448
:1004A000C601E9CFDF91CF910895880F991F880F7A
:1004B000991FFC01EA5FFC4F808191812281338189
:1004C0002A30310531F030F42230310511F090E05E
:1004D00080E008952F303105E1F327333105B9F776
:1004E000FC01228121FF02C0039608958081918141
:1004F0000895880F991F880F991FFC01EA5FFC4F30
:10050000828193818A30910571F028F4029741F439
:1005100081E090E008958F309105D1F3C797C1F342
:1005200090E080E0089588E090E00895FC018481E7
:100530009581A681B7814081518162817381811546
:1005400026E3920725E6A20724ECB2073CF0141636
:100550001506160617068CF4B7FF0FC04150510957
:100560006109710940835183628373839653A54661
:10057000B44C84839583A683B78384819581A681B7
:10058000B781408151816281738181302AEC920769
:100590002AE9A2072BE3B2073CF477FF14C0181630
:1005A00019061A061B067CF44F5F5F4F6F4F7F4F93
:1005B00040835183628373839A5CAA49BB438483DB
:1005C0009583A683B78308952091A303209530E0F7
:1005D000F901EA5FFD4F908190952A5F3E4FD90166
:1005E0008C914091A1035091A20342505109E3EA3A
:1005F000F3E031969F01235A33402417350770F4F6
:1006000020819227292F30E0D901AA5FBD4F9C910C
:1006100098272A5F3E4FD9018C91EBCF089523E0B4
:1006200030E03093A2032093A103E3EAF3E090913A
:10063000CA03908380588183628308950F931F9328
:10064000582F577001E010E020E030E004C0000FA8
:10065000111F221F331F5A95D2F723E096958795D5
:100660002A95E1F79927E091CE03F091CF03662315
:1006700021F0E091D403F091D503E80FF91F8081B8
:10068000442329F0082B00831F910F9108950095B2
:100690000823F9CFCF92DF92EF92FF920F931F932F
:1006A000CF93DF93CDB7DEB788899989AA89BB89B3
:1006B0004C895D896E897F89088D198D2A8D3B8DC6
:1006C000CC8CDD8CEE8CFF8C80179107A207B307D2
:1006D00059F44C195D096E097F09141615061606A2
:1006E00017065CF081E00AC0801B910BA20BB30BD4
:1006F000181619061A061B06ACF780E0DF91CF9199
:100700001F910F91FF90EF90DF90CF9008952F925F
:100710003F924F925F926F927F928F929F92AF9291
:10072000BF92CF92DF92EF92FF920F931F93CF93DE
:10073000DF93CDB7DEB7A8970FB6F894DEBF0FBE34
:10074000CDBF10E000E0F801EE0FFF1FEC5CFA4FA8
:100750000190F081E02D309749F041E080818111D6
:1007600001C040E060E0C8010E941E030F5F1F4F00
:100770000032110541F724EF34E03FA32EA3E091AE
:10078000CB03F091CC039F01205C3F4F44EF54E03A
:10079000DA018D919D91AD01009729F0DC018D91D9
:1007A0009C919183808332962E173F0789F7F0E85A
:1007B000EF2EF4E0FF2E10E000E0D701ED91FD9167
:1007C0007D01309749F041E08081811101C040E016
:1007D00061E0C8010E941E030F5F1F4F0830110522
:1007E00061F744E754E0E091D103F091D2039F0117
:1007F000245F3F4FDA018D919D91AD01009729F063
:10080000DC018D919C91918380833296E217F307EE
:1008100089F71092A2031092A1038091C8039091CE
:10082000C903DC01ED91FC910084F185E02D09956F
:10083000892B09F44BC08091C8039091C903DC0156
:10084000ED91FC910084F185E02D09952091A103A3
:100850003091A203A091C803B091C903ED91FC911E
:1008600011970084F185E02D2817390768F4CD0130
:1008700009959093A2038093A1038091C503909161
:10088000C6030E943D01D7CFCD01099581979CF405
:100890008091C8039091C903DC01ED91FC91008423
:1008A000F185E02D0995E3EAAE2EE3E0BE2E750159
:1008B00006970CF064C08091C8039091C903DC01D5
:1008C000ED91FC910680F781E02D09954091CE03D2
:1008D0005091CF0330E020E0F901EE0FFF1FEC5CF8
:1008E000FA4FA081B181109799F0F90183E0F69554
:1008F000E7958A95E1F7E40FF51F808190E0622F7C
:10090000677002C0959587956A95E2F781708C9320
:100910002F5F3F4F20323105F9F6E091CB03F09184
:10092000CC03CF01805C9F4FAEA1BFA14D915D91E3
:10093000BFA3AEA34115510529F020813181DA0111
:100940002D933C9332968E179F0771F7A8960FB69A
:10095000F894DEBF0FBECDBFDF91CF911F910F91F5
:10096000FF90EF90DF90CF90BF90AF909F908F90CF
:100970007F906F905F904F903F902F9008950091DF
:10098000A1031091A203C090C803D090C903C7016E
:10099000835A93408017910760F4D601ED91FC9142
:1009A0000284F385E02DC6010995F70181937F014B
:1009B000E6CF7801F2E0EF1AF1080E94E402F701B5
:1009C000ED55FC4F2081F801EE55FC4F3081232777
:1009D000322723272817390741F0D601ED91FC91E2
:1009E0000680F781E02DC60170CF9091A30380911E
:1009F000CA039813F2CFF092A203E092A103909061
:100A0000A4030091A5031091A60310270127102726
:100A1000E090A703F090A803FE24EF24FE24409169
:100A2000A7038091A90390E0BFE09B1609F4A3C23D
:100A3000B91560F1E3E09E1609F47EC0E91568F08F
:100A4000F1E09F1609F413C122E0921609F49AC14D
:100A500061E070E0892D90E016C035E0931609F44E
:100A60006AC2931608F418C286E09812F1CF8091FA
:100A7000CD038150990B8017910708F043C062E0C5
:100A800070E086E090E00E940F0346C0A2E49A1650
:100A900009F40BC4A91598F0B0E19B1609F49BC0AA
:100AA000E1E49E12D5CF84E090E09093A20380937E
:100AB000A1031092A50385E18093A6032DC0F4E461
:100AC0009F1609F45DC39F1608F4F6C225E492123E
:100AD000BFCF8EE78093A50381E2EEE7F3E0DE016E
:100AE000119601900D928A95E1F7FE013196A6EAE2
:100AF000B3E081919D01235A3340882309F460C4F7
:100B00008D93F7CF000F111FE091CB03F091CC0331
:100B1000E00FF11FF182E0828091A1039091A20386
:100B20000296819708F484C28091A40364E070E087
:100B300090E00E940F037CC2C701019763E070E060
:100B40008D379105C8F42091CD03C8018E0D9F1DEE
:100B500062E070E02817190678F0C701880F991F26
:100B600003969093A2038093A103E3EAF3E081321A
:100B7000910528F064E070E083E090E084CF319646
:100B80009F01235A33402817390710F41082F7CFFA
:100B900093E09093A40383508093A503000F111F4B
:100BA000E091CB03F091CC03E00FF11F31E0E31AA9
:100BB000F10882E0A80EB11C9FEFE916F90609F4CE
:100BC000ABCF808191813296D50111969C9311977C
:100BD00012968C93EBCF9701215031092B373105B9
:100BE00030F49701220F331F8217930729F063E037
:100BF00070E080E190E047CF2091CD03C8018E0DD9
:100C00009F1D2817190618F462E070E0F2CF86E005
:100C100090E09093A2038093A10380E18093A403CA
:100C20001093A5030093A6031092A703E092A803D4
:100C3000000F111FE091CB03F091CC03E00FF11FE7
:100C4000B1E0EB1AF10822E0A20EB11C3FEFE3166F
:100C5000F30609F4EDC1D50115968C9115971696FA
:100C60009C9189279827892781939193E9CFC70180
:100C7000019763E070E0803D974060F52091D003DC
:100C8000C8018E0D9F1D62E070E02817190610F153
:100C9000C70123E0969587952A95E1F79C012D5F82
:100CA0003F4F3093A2032093A1039701277033276E
:100CB000232B29F004969093A2038093A1038091A3
:100CC000A1039091A203E3EAF3E08132910528F0B9
:100CD00064E070E081E090E0D6CE31969F01235A27
:100CE00033402817390710F41082F7CF91E0909322
:100CF000A40383508093A5034090CE035090CF036C
:100D000030E020E0712C41E050E060E070E04A010A
:100D10005B01072C04C0880C991CAA1CBB1C0A94FC
:100D2000D2F7F901A3E0F695E795AA95E1F7EA5520
:100D3000FC4F6080D80183E0B695A7958A95E1F7CE
:100D4000AF71BB27A40DB51D8C9190E0A02FA770AB
:100D500002C095958795AA95E2F780FF0FC0862877
:100D600080827394E8E07E1201C0712C0F5F1F4FE8
:100D70002F5F3F4FE216F30651F6CECE80946820E7
:100D80006082EFCFC701019763E070E0803D97403C
:100D900060F52091D603C8018E0D9F1D62E070E0C2
:100DA0002817190610F1C70123E0969587952A9513
:100DB000E1F79C012D5F3F4F3093A2032093A103E5
:100DC000970127703327232B29F004969093A203D1
:100DD0008093A1038091A1039091A203E3EAF3E041
:100DE0008132910528F064E070E082E090E04BCE23
:100DF00031969F01235A33402817390710F4108287
:100E0000F7CF92E09093A40383508093A503409082
:100E1000D4035090D50330E020E0712C41E050E045
:100E200060E070E04A015B01072C04C0880C991C4B
:100E3000AA1CBB1C0A94D2F7F901A3E0F695E7952A
:100E4000AA95E1F7EA55FC4F6080D80183E0B6959A
:100E5000A7958A95E1F7A40DB52DB11D8C9190E071
:100E6000A02FA77002C095958795AA95E2F780FFFD
:100E70000FC086288082739488E0781201C0712C9C
:100E80000F5F1F4F2F5F3F4FE216F30659F644CE18
:100E9000809468206082EFCFC701019763E070E023
:100EA0008D379105C8F42091D303C8018E0D9F1D85
:100EB00062E070E02817190678F0C701880F991FC3
:100EC00003969093A2038093A103E3EAF3E08132B7
:100ED000910528F064E070E084E090E0D4CD319694
:100EE0009F01235A33402817390710F41082F7CF97
:100EF00094E09093A40383508093A503000F111FE7
:100F0000E091D103F091D203E00FF11F91E0E91AD3
:100F1000F108A2E0AA0EB11CBFEFEB16FB0609F424
:100F2000FBCD808191813296D50111969C931197CA
:100F300012968C93EBCFE114BFEFFB0629F063E030
:100F400070E0E114F10449F48091D0038150990BD1
:100F50008017910728F462E070E085E090E093CD7F
:100F600041E0E114EFEFFE0609F040E060E0C80167
:100F70000E941E03D1CDA70163E0569547956A955F
:100F8000E1F7242FB70167707727672B11F021E075
:100F9000240FA70141505109403B574018F428172E
:100FA000190629F063E070E08FE090E06CCD2091AD
:100FB000D003C8018E0D9F1D2817190618F462E092
:100FC00070E0F2CF86E090E09093A2038093A103BB
:100FD0008FE08093A4031093A5030093A603F092DF
:100FE000A703E092A803B12CA12C912CF50153E0AA
:100FF000F695E7955A95E1F7ED55FC4F478150E09E
:10100000092C02C0559547950A94E2F7417060E0BB
:10101000C8018A0D9B1D0E941E03939428E0921222
:1010200001C0912C3FEFA31AB30AEA14FB04F1F6B6
:101030000091A1031091A2037801F2E0EF0EF11CE0
:10104000F092A203E092A1030E94E402F801ED55A0
:10105000FC4F908381838091C70387FD09C061E0C5
:101060000E94DE008091C3039091C4030E943D0161
:10107000D601ED91FC910280F381E02DA70163EA96
:1010800073E0C60109958091C8039091C903DC0102
:10109000ED91FC910680F781E02D09958091C303C5
:1010A0009091C4030E943D018091C70387FD0ECC3F
:1010B00060E00E94DE000ACC0531110508F055C041
:1010C00085E1E816F10408F050C0E016F10608F4D6
:1010D0004CC048014EEA442E43E0542E312C212CC2
:1010E000C4010E9479023C015101A80EB91EC5013C
:1010F0000B968197C0F5C4010E945502A301BC0163
:10110000C2010E944D12460C571CC40101961501E4
:101110008401E816F90628F5C50107969093A20305
:101120008093A10383E48093A4038EE78093A503B7
:101130001092A6030093A7038091840590918505E2
:1011400020918605309187053093A8032093A90349
:101150009093AA038093AB03B092AC03A092AD032B
:10116000DBCC4C01BDCF5101D7CF83E090E0909311
:10117000A2038093A10383E48093A40381E82BC09E
:10118000C801880F991F0E9428117C010097D1F097
:101190009BA38AA3FC01912C812C92E0A90EB11C87
:1011A00008151905D9F0D50112968C91129713964E
:1011B0009C9189279827892781939193BFEF8B1A58
:1011C0009B0AEBCF83E090E09093A2038093A1036E
:1011D0009092A40382E88093A5039ECC512C412CCD
:1011E00018A6312C212C0BE010E084149504C9F1D1
:1011F000EAA1FBA161907190FBA3EAA3F5E16F1650
:10120000710480F083E090E09093A2038093A103A7
:1012100084E48093A40381E88093A503C7010E941E
:10122000C4117ACCC3010E9479025C019C01200F99
:10123000311F3DA32CA32132310598F4C3010E9434
:101240005502A501BC01C8018D559C4F0E944D124D
:101250002A0C3B1C3FEF431A530A68A60CA11DA1A0
:10126000C4CF1093A2030093A10384E48093A4034A
:101270008EE78093A5031092A60388A58093A70309
:101280008091840590918505209186053091870590
:101290003093A8032093A9039093AA038093AB03F0
:1012A0003092AC032092AD03B9CF0531110548F45B
:1012B0008091A8039091A9039827892798274A9796
:1012C00040F083E090E09093A2038093A10382E436
:1012D00053CF000F111F000F111FF801EA5FFC4FE1
:1012E0008081918122813381442309F446C02A30D0
:1012F0003105B1F170F422303105F9F083E090E06E
:101300009093A2038093A10382E48093A4038EE7C9
:1013100062CF2F303105E1F02733310579F7DC0159
:10132000ED91FC9111972091AA03208312962C91A4
:101330001297226012962C93E1CF2091AA03DC0130
:101340002C9311962C911197226011962C93D6CF45
:101350002091AA03FC012083218122602183CECF2A
:1013600028E0EAEAF3E0DC0101900D922A95E1F72A
:10137000FC01208522602087C1CF2A303105E1F0B1
:1013800050F42230310509F0B9CFDC0111962C91CF
:1013900011972D7FDACF2F30310551F027333105EA
:1013A00009F0ACCFDC0112962C9112972D7FC2CFA1
:1013B000FC0121812D7FD2CFFC0120852D7FDBCF49
:1013C0003093A2032093A103A7CB1F920F920FB6D5
:1013D0000F9211242F933F938F939F93AF93BF93BB
:1013E00080918D0590918E05A0918F05B09190050B
:1013F00030918C0523E0230F2D3758F50196A11D60
:10140000B11D20938C0580938D0590938E05A0933C
:101410008F05B09390058091880590918905A091E2
:101420008A05B0918B050196A11DB11D8093880599
:1014300090938905A0938A05B0938B05BF91AF91D6
:101440009F918F913F912F910F900FBE0F901F9002
:10145000189526E8230F0296A11DB11DD2CF1F9229
:101460000F920FB60F9211242F933F934F935F93D8
:101470006F937F938F939F93AF93BF93EF93FF935C
:1014800087ED93E00E94C601FF91EF91BF91AF916C
:101490009F918F917F916F915F914F913F912F918C
:1014A0000F900FBE0F901F9018951F920F920FB6BE
:1014B0000F9211242F938F939F93EF93FF93E091BB
:1014C000E703F091E8038081E091ED03F091EE03F2
:1014D00082FD1BC090818091F0038F5F8F732091FC
:1014E000F103821741F0E091F003F0E0E952FC4F84
:1014F000958F8093F003FF91EF919F918F912F91A2
:101500000F900FBE0F901F9018958081F4CFCF934E
:10151000DF93CDB7DEB7C954D1090FB6F894DEBF5B
:101520000FBECDBF789484B5826084BD84B58160E0
:1015300084BD85B5826085BD85B5816085BD80919E
:101540006E00816080936E00109281008091810016
:10155000826080938100809181008160809381000E
:10156000809180008160809380008091B1008460D0
:101570008093B1008091B00081608093B000809131
:101580007A00846080937A0080917A0082608093F0
:101590007A0080917A00816080937A0080917A004D
:1015A000806880937A001092C10060EAE62E63E0C2
:1015B000F62EF0929104E09290041092A00384E938
:1015C00094E00E948C0084EC94E00E948C00F092E5
:1015D0003B05E0923A0572E7E72E73E0F72E60E0F4
:1015E000D7018D917D010E940C01B7E7EB16B3E0A6
:1015F000FB06A9F73CE6E32E33E0F32E60E0F701AB
:1016000081917F010E940C01F2E7EF16F3E0FF06E3
:10161000A9F761E087E00E940C0161E088E00E9488
:101620000C0161E08CE00E940C0161E08DE00E9401
:101630000C0161E089E00E940C0161E08AE00E94F7
:101640000C0161E08BE00E940C0187ED93E0909328
:10165000C9038093C8038FEF8093C703E091E7032A
:10166000F091E80382E08083E091E303F091E403EA
:101670001082E091E503F091E60380E1808310920F
:10168000EF03E091EB03F091EC0346E0F42EF082DF
:10169000E091E903F091EA03808180618083E09129
:1016A000E903F091EA03808188608083E091E90397
:1016B000F091EA03808180688083E091E903F091F2
:1016C000EA0380818F7D80838EEE92E09093C60343
:1016D0008093C50381E49AE09093C4038093C3038D
:1016E00081E08093CA0350E2E52EE092CD03E092C0
:1016F000D003F092D30388E08093D60384E090E097
:101700000E9428119093CF038093CE03009709F095
:10171000C6C1F12CE12CC701880F991F9C012C5CDC
:101720003A4F6901D9018D919C91892B49F481E04F
:1017300090E00E942811F60191838083DC011C92C5
:10174000BFEFEB1AFB0AE0E2EE16F10421F740913D
:10175000CB035091CC03E4EFF4E090E080E02191E2
:101760003191232B49F4DF0112979C01220F331F83
:10177000240F351F2D933C9301968032910579F704
:1017800010E8E12E14E0F12ED7018D919D917D019D
:10179000892B51F481E090E00E942811F7013297E3
:1017A00091838083FC011082F0E9EF16F4E0FF06DC
:1017B00059F78091D1039091D203B4E72B2EB4E076
:1017C0003B2ED1012D913D911D01232B21F4FD01D3
:1017D0003297918380830296B0E82B16B4E03B06E3
:1017E00081F784E190E0A0E0B0E080937C059093E5
:1017F0007D05A0937E05B0937F058FB7F894409147
:101800008D0550918E0560918F05709190058FBF69
:1018100080917C0590917D05A0917E05B0917F051A
:10182000840F951FA61FB71F809380059093810595
:10183000A0938205B0938305412CA5E65A2EADEC0A
:101840006A2EADE17A2EE2E7AE2EE3E0BE2EF0E89E
:10185000CF2EF4E0DF2EF601819091906F0181147C
:10186000910421F1D5012C9130E0F901E255FF4FAF
:101870008491F901E656FF4FF490F901EA57FF4FC2
:10188000E490EE2081F081110E94B500EE2DF0E091
:10189000EE0FFF1FE859FF4FA591B491EC919F2DDA
:1018A0009E2381E009F480E0F4018083FFEFAF1A0A
:1018B000BF0A2AE834E02C153D0509F0CCCF4CE6F0
:1018C00053E0E4E7F4E081919191892B21F1DA0171
:1018D0008C918E3008F08E508770806480937C00ED
:1018E00080917A00806480937A0080917A0086FDEE
:1018F000FCCF80917800909179009F0122503109AE
:10190000D9012D913C9166E0880F991F6A95E1F706
:10191000D9018D939C934F5F5F4F2E163F0699F62A
:101920000E9487038091840590918505A09186058A
:10193000B09187050196A11DB11D809384059093F8
:101940008505A0938605B09387058091950481FD58
:1019500003C0B1E0B09394048091990481FD0BC061
:101960008091920481FFCCC081E090919304911109
:1019700080E0809398048091A20481FD10C01092B1
:101980009A0410929B0410929C0410929D04409221
:101990009E0450929F046092A0047092A1048091D2
:1019A00097048270909194049111B1C0811102C08A
:1019B000109296048091C50481FD04C08091960424
:1019C0008093C4048091C90481FD04C08091A30464
:1019D0008093C8048091D20481FD10C01092CA0483
:1019E0001092CB041092CC041092CD044092CE04FD
:1019F0005092CF046092D0047092D1048091C704B9
:101A000082709091C4049111C4C1811102C01092DE
:101A1000C6048091920481FD07C0E0919004F0918A
:101A200091048091D304808324E3C22E25E0D22E3A
:101A30003AE7A32E33E0B32ED601ED91FD916D016F
:101A4000309729F06081F50180810E94DE00FFEF70
:101A5000AF1ABF0A2CE335E02C153D0569F787E77F
:101A6000A82E83E0B82E94EFC92E94E0D92ED6018B
:101A7000ED91FD916D01309709F4FAC2D501EC901A
:101A8000018110E061E08E2D0E940C01011511050D
:101A900009F0C1C260E08E2D0E94DE00E9C224E0A0
:101AA000DC011D922A95E9F780E490E00E9428115C
:101AB0009093CC038093CB03009709F42ACEFC01CA
:101AC0001192EA94E9F781E090E00E942811909346
:101AD000D5038093D403009709F41BCEDC011C923C
:101AE0008CE090E00E9428119093D2038093D10360
:101AF000009709F40ECEFC011192FA94E9F709CE91
:101B0000E0919004F091910481E0908130CF8111B7
:101B100003C0E1E0E09396048091BA0481FD09C01E
:101B200088E0E4E7F5E0A2EBB4E001900D928A953D
:101B3000E1F7F091AE042A96FFAF2A9780919804BE
:101B4000F11120C09091B004911148C38823E1F0B5
:101B50008091AF0481FD03C021E02093AE04809109
:101B6000A40481FF1092A3048091C30481FD2AC0C4
:101B700088E0E2EBF4E0ABEBB4E001900D928A95E3
:101B8000E1F720C0811127C08091AD0481FD10C014
:101B90001092A5041092A6041092A7041092A80413
:101BA0001092A9041092AA041092AB041092AC04F3
:101BB0008091A40481FF1092A3048091AF0481FF5F
:101BC0001092AE048091B10481FDF4CE809198040E
:101BD0008093B004EFCE2A963FAD2A97313091F72B
:101BE0008090BF049090C004A090C104B090C20443
:101BF00080919E0490919F04A091A004B091A104B3
:101C00004091BB045091BC046091BD047091BE042E
:101C1000C0909A04D0909B04E0909C04F0909D04A6
:101C20004C0D5D1D6E1D7F1D498B5A8B6B8B7C8B04
:101C3000880D991DAA1DBB1D8D8B9E8BAF8BB88FF8
:101C4000CE0141960E94960288E0FE017196DE0167
:101C5000D99601900D928A95E1F788E0FE01F996F8
:101C6000DE01AF5BBF4F01900D928A95E1F700D086
:101C700000D000D000D0ADB7BEB7119688E0E2EB3F
:101C8000F4E001900D928A95E1F700D000D000D0E9
:101C900000D0ADB7BEB7119688E0FE01EF5BFF4FF5
:101CA00001900D928A95E1F71F9252E0D52EDF92B6
:101CB0001F921F922A968FAD2A978F930E944A03F4
:101CC0000FB6F894DEBF0FBECDBF9091AD04882350
:101CD000A1F08091AF0481FFD092AE048091A40462
:101CE00081FD03C0B1E0B093A30488E0EAE9F4E029
:101CF00091FD68CFA5EAB4E040CF91FD63CF80911C
:101D0000B6049091B704A091B804B091B904809042
:101D1000BF049090C004A090C104B090C204409150
:101D2000B2045091B3046091B4047091B504C090B2
:101D3000BB04D090BC04E090BD04F090BE044C19EC
:101D40005D096E097F09498B5A8B6B8B7C8B8819D7
:101D50009909AA09BB098D8B9E8BAF8BB88FCE01D9
:101D600041960E94960288E0FE017196DE019996E6
:101D700001900D928A95E1F788E0FE01B996DE01A7
:101D8000D19601900D928A95E1F788E0FE01F196D7
:101D9000B1CF811103C0E1E0E093C6048091EA0471
:101DA00081FD09C088E0E4E7F5E0A2EEB4E001902F
:101DB0000D928A95E1F7F091DE042A96FFAF2A97FB
:101DC0008091C804F1111CC09091E004992309F49A
:101DD00008C2811117C08091DF0481FD03C021E09A
:101DE0002093DE048091F30481FD25C088E0E2EEBB
:101DF000F4E0ABEEB4E001900D928A95E1F71BC0E0
:101E0000882391F18091DD0481FD10C01092D504EA
:101E10001092D6041092D7041092D8041092D904CC
:101E20001092DA041092DB041092DC048091DF043B
:101E300081FF1092DE048091D40481FD0CC080915A
:101E4000C8048111E6C081E09091DE04913009F070
:101E500080E08093D3048091E10481FDDACD80910C
:101E6000C8048093E004D5CD2A963FAD2A9731303F
:101E700011F78090EF049090F004A090F104B090DE
:101E8000F2048091CE049091CF04A091D004B0913F
:101E9000D1044091CA045091CB046091CC0470915C
:101EA000CD04C090EB04D090EC04E090ED04F090F1
:101EB000EE044C0D5D1D6E1D7F1D498B5A8B6B8B87
:101EC0007C8B880D991DAA1DBB1D8D8B9E8BAF8BA6
:101ED000B88FCE0141960E94960288E0FE0171966D
:101EE000DE01599601900D928A95E1F788E0FE0196
:101EF0007996DE01919601900D928A95E1F700D0D6
:101F000000D000D000D0ADB7BEB7119688E0E2EEA9
:101F1000F4E001900D928A95E1F700D000D000D056
:101F200000D0ADB7BEB7119688E0FE01B196019022
:101F30000D928A95E1F71F9242E0D42EDF921F9214
:101F40001F922A968FAD2A978F930E944A030FB64D
:101F5000F894DEBF0FBECDBF9091DD04882369F0F9
:101F60008091DF0481FFD092DE0488E0EAECF4E0A7
:101F700091FD61CFA5EDB4E03ECF91FD5CCF8091A6
:101F8000E6049091E704A091E804B091E904809000
:101F9000EF049090F004A090F104B090F20440910E
:101FA000E2045091E3046091E4047091E504C09070
:101FB000EB04D090EC04E090ED04F090EE044C19AA
:101FC0005D096E097F09498B5A8B6B8B7C8B881955
:101FD0009909AA09BB098D8B9E8BAF8BB88FCE0157
:101FE00041960E94960288E0FE017196DE011196EC
:101FF00001900D928A95E1F788E0FE013196DE01AD
:10200000199601900D928A95E1F788E0FE013996C4
:10201000B1CF81E01ECF0F3F110511F461E03BCD40
:10202000EE2DF0E0E255FF4FE491E33009F47CC07F
:1020300048F4E130C9F0E23009F471C0003811050C
:102040006CF728CDE73009F479C0E83009F47EC098
:10205000E430A1F78091800080628093800010932B
:102060008B0000938A0004C084B5806884BD07BDDE
:10207000BFEFAB1ABB0AEAEFF4E0EC15FD0509F07F
:10208000F6CC8091780590917905A0917A05B09170
:102090007B05AC01BD01535D6E4C7E4F4115FAECE2
:1020A0005F07FAE96F07FBE37F070CF057C0409327
:1020B00078055093790560937A0570937B050E94AB
:1020C00087038FB7F89440918D0550918E056091EC
:1020D0008F05709190058FBF80918005909181054B
:1020E000A0918205B0918305481759076A077B07BD
:1020F00008F053C02FB7F89440918D0550918E058C
:1021000060918F05709190052FBF841B950BA60BD6
:10211000B70B84369105A105B10598F2D0CF84B5EF
:10212000806284BD08BDA4CF8091800080688093C8
:10213000800010938900009388009ACF8091B000AE
:1021400080688093B0000093B30092CF8091B0007C
:1021500080628093B0000093B4008ACF9D59A94655
:10216000BA438093780590937905A0937A05B0934C
:102170007B058091740590917505A0917605B091CD
:1021800077050196A11DB11D809374059093750587
:10219000A0937605B093770592CF40917C0550913E
:1021A0007D0560917E0570917F05840F951FA61FA8
:1021B000B71F8093800590938105A0938205B0930B
:1021C000830520E030E0232B09F43DCB0E94B201CF
:1021D000882309F438CB0E94000035CB8111F2CC62
:1021E000D3CC882309F427CE0DCEE7EDF3E013829C
:1021F000128288EE93E0A0E0B0E084839583A6830A
:10220000B7838EE593E09183808385EC90E095879A
:10221000848784EC90E09787868780EC90E0918BB0
:10222000808B81EC90E0938B828B82EC90E0958B9D
:10223000848B86EC90E0978B868B118E128E138E9A
:10224000148E0895EE0FFF1F0590F491E02D099470
:102250000F931F93CF93DF938230910510F482E0A8
:1022600090E0E0919305F091940530E020E0B0E03B
:10227000A0E0309799F42115310509F44AC0281BD4
:10228000390B24303105D8F58A819B8161157105A0
:1022900089F1FB0193838283FE0111C0408151814A
:1022A0000281138148175907E0F04817590799F43C
:1022B000109761F012960C93129713961C93329616
:1022C000CF01DF91CF911F910F9108950093930556
:1022D00010939405F4CF2115310551F0421753079F
:1022E00038F0A901DB019A01BD01DF01F801C1CF7E
:1022F000EF01F9CF9093940580939305CDCFFE0124
:10230000E20FF31F8193919322503109398328837F
:10231000D7CF2091910530919205232B41F4209144
:102320000201309103013093920520939105209191
:102330000001309101012115310541F42DB73EB75F
:102340004091040150910501241B350BE09191054A
:10235000F0919205E217F307A0F42E1B3F0B28170C
:10236000390778F0AC014E5F5F4F2417350748F00E
:102370004E0F5F1F50939205409391058193919367
:102380009FCFF0E0E0E09CCFCF93DF930097E9F0A0
:10239000FC01329713821282A0919305B0919405AB
:1023A000ED0130E020E01097A1F420813181820F0F
:1023B000931F20919105309192052817390709F054
:1023C00061C0F0939205E0939105DF91CF9108955C
:1023D000EA01CE17DF07E8F54A815B819E014115CE
:1023E0005105B1F7E901FB83EA8349915991C40F83
:1023F000D51FEC17FD0761F4808191810296840F4F
:10240000951FE90199838883828193819B838A83C5
:10241000F0E0E0E012968D919C9113970097B9F54A
:102420002D913C911197CD010296820F931F20911F
:102430009105309192052817390739F6309751F5F3
:102440001092940510929305B0939205A093910574
:10245000BCCFD383C28340815181840F951FC8179D
:10246000D90761F44E5F5F4F88819981480F591FEA
:10247000518340838A819B81938382832115310517
:1024800009F0B0CFF0939405E09393059ECFFD0142
:10249000DC01C0CF13821282D7CFFB01DC0102C066
:1024A00001900D9241505040D8F70895F894FFCF15
:1024B00000009505800000C0C101C30302C2C6062A
:1024C00007C705C5C404CC0C0DCD0FCFCE0E0ACA6C
:1024D000CB0BC90908C8D81819D91BDBDA1A1EDEBC
:1024E000DF1FDD1D1CDC14D4D515D71716D6D2126C
:1024F00013D311D1D010F03031F133F3F23236F67C
:10250000F737F53534F43CFCFD3DFF3F3EFEFA3A2B
:102510003BFB39F9F83828E8E929EB2B2AEAEE2EBB
:102520002FEF2DEDEC2CE42425E527E7E62622E22B
:10253000E323E12120E0A06061A163A3A26266A67B
:10254000A767A56564A46CACAD6DAF6F6EAEAA6AEB
:102550006BAB69A9A86878B8B979BB7B7ABABE7E3B
:102560007FBF7DBDBC7CB47475B577B7B67672B2EB
:10257000B373B17170B0509091519353529296567B
:102580005797559594549C5C5D9D5F9F9E5E5A9AAB
:102590009B5B99595898884849894B8B8A4A4E8E3B
:1025A0008F4F8D4D4C8C44848545874746868242AB
:1025B00043834181804000C1814001C0804101C00E
:1025C000804100C1814001C0804100C1814000C103
:1025D000814001C0804101C0804100C1814000C1F3
:1025E000814001C0804100C1814001C0804101C0E3
:1025F000804100C1814001C0804100C1814000C1D3
:10260000814001C0804100C1814001C0804101C0C2
:10261000804100C1814000C1814001C0804101C0B2
:10262000804100C1814001C0804100C1814000C1A2
:10263000814001C0804101C0804100C1814000C192
:10264000814001C0804100C1814001C0804101C082
:10265000804100C1814000C1814001C0804101C072
:10266000804100C1814001C0804100C1814000C162
:10267000814001C0804100C1814001C0804101C052
:10268000804100C1814001C0804100C1814000C142
:10269000814001C0804101C0804100C1814000C132
:1026A000814001C0804100C1814001C0804101C022
:1026B000804100C181409004370094040F009604CB
:1026C0000F0098040F009A040A00A3040F00A50449
:1026D0000A00AE040200B0040F00B2040A00BB04FA
:1026E0000A00C4040F00C6040F00C8040F00CA0487
:1026F0000A00D3040F00D5040A00DE040200E0043F
:102700000F00E2040A00EB040A0000000000E801E8
:10271000480175013502A601840198010E0F1011C0
:1027200012130203040506090A0B07080C0D633790
:10273000613238643562346236343530303634359F
:1027400064373364333735626266353338320000BC
:107E0000112484B714BE81FFF0D085E080938100F7
:107E100082E08093C00088E18093C10086E0809377
:107E2000C20080E18093C4008EE0C9D0259A86E02C
:107E300020E33CEF91E0309385002093840096BBD3
:107E4000B09BFECF1D9AA8958150A9F7CC24DD24C4
:107E500088248394B5E0AB2EA1E19A2EF3E0BF2EE7
:107E6000A2D0813461F49FD0082FAFD0023811F036
:107E7000013811F484E001C083E08DD089C08234E0
:107E800011F484E103C0853419F485E0A6D080C0E4
:107E9000853579F488D0E82EFF2485D0082F10E0AE
:107EA000102F00270E291F29000F111F8ED06801E7
:107EB0006FC0863521F484E090D080E0DECF843638
:107EC00009F040C070D06FD0082F6DD080E0C81688
:107ED00080E7D80618F4F601B7BEE895C0E0D1E017
:107EE00062D089930C17E1F7F0E0CF16F0E7DF06D8
:107EF00018F0F601B7BEE89568D007B600FCFDCFD4
:107F0000A601A0E0B1E02C9130E011968C91119780
:107F100090E0982F8827822B932B1296FA010C0160
:107F200087BEE89511244E5F5F4FF1E0A038BF0790
:107F300051F7F601A7BEE89507B600FCFDCF97BE46
:107F4000E89526C08437B1F42ED02DD0F82E2BD052
:107F50003CD0F601EF2C8F010F5F1F4F84911BD097
:107F6000EA94F801C1F70894C11CD11CFA94CF0C13
:107F7000D11C0EC0853739F428D08EE10CD085E9AC
:107F80000AD08FE07ACF813511F488E018D01DD067
:107F900080E101D065CF982F8091C00085FFFCCF94
:107FA0009093C60008958091C00087FFFCCF809118
:107FB000C00084FD01C0A8958091C6000895E0E648
:107FC000F0E098E1908380830895EDDF803219F02E
:107FD00088E0F5DFFFCF84E1DECF1F93182FE3DFCA
:107FE0001150E9F7F2DF1F91089580E0E8DFEE27F6
:047FF000FF270994CA
:027FFE00040479
:00000001FF
